:1000000012C0189518951895189518951895189563
:100010001895189518951895189518951895189578
:100020001895189518958FE58DBFC0E4E8E34E2E1E
:1000300084E08EBFD4E0F4E05F2EEEEFF3E0A0E6C4
:10004000B0E088278D933197E9F7ADD066248FEF24
:1000500081BB8FEF87BB80E084BB86E086B980ECF4
:1000600087B9379A8CE0E7D08AD089D08FE711E042
:1000700095D0E6EEF2E07DD084E690E008D18FEBFB
:1000800011E08CD0E8EFF2E074D084EF91E0FFD083
:1000900085EC806C87B90AD1A0E6B0E08C93009122
:1000A000600044E010D1A1E6B0E00C930091610043
:1000B000043108F001C001D0EBCF61D08FE711E02F
:1000C0006DD0EAE0F3E055D084EF91E0E0D08FEB23
:1000D00011E064D0EAE1F3E04CD084E690E0D7D0C0
:1000E000C19A85EC806C87B9E1D0A0E6B0E08C9332
:1000F0000091600044E0E7D0A1E6B0E00C930091ED
:100100006100043110F009F001C004C086E990E0FC
:10011000BED001D0E6CF33D08FE711E03FD0E8E288
:10012000F3E027D084E690E0B2D08FEB11E036D038
:10013000E6E3F3E01ED08EE190E0A9D0C19885EC13
:10014000806C87B9B3D0A0E6B0E08C9300916000DA
:1001500044E0B9D0A1E6B0E00C93009161000F300B
:1001600010F009F001C004C082E390E090D07DDF80
:10017000E6CFA5D0802D11F058D0FBCF089581E0B7
:100180005AD00ED080E857C08FE7213039F08FEB7E
:10019000223021F08FE8233009F08FEC810F4BC023
:1001A00083E0992774C08AEF90E071D08D9A8C9A81
:1001B0008B9A8A9A899A889A909885E090E067D07D
:1001C000919895989498939A929A919AEF93FF9315
:1001D000E8E2F1E050D0FF91EF91919855D0919ADB
:1001E000EF93FF93E8E2F1E046D0FF91EF91919811
:1001F0004BD0919AEF93FF93E8E2F1E03CD0FF916E
:10020000EF91919841D09298919AEF93FF93E8E201
:10021000F1E031D0FF91EF91919836D088E20BD088
:100220008EE009D086E007D00895909A829505D097
:1002300004D02AD008959098F9CF859510F4929A19
:1002400001C09298859510F4939A01C09398859572
:1002500010F4949A01C09498859510F4959A01C071
:100260009598919AEF93FF93E8E2F1E004D0FF9123
:10027000EF91919808953197F1F70895689462F895
:100280000895E89462F8089581E090E000C0EF934B
:10029000FF93EE27E82BE92B31F0E8EBFBE03197F9
:1002A000F1F70197D1F7FF91EF910895369A3699BA
:1002B000FECF369A3699FECF84B195B10895C89590
:1002C000319600200895FF93881BF9E0001FFA95EE
:1002D00011F4FF910895881F841B18F4840F8894EB
:1002E000F5CF0894F3CF534D41525420495252490F
:1002F000474154494F4E0000202020205359535469
:10030000454D2020202020200000574154455220F8
:100310004E4F5420464F554E440050554D50204DA1
:100320004F544F52204F4E00534F494C20495320B9
:1003300057455420000050554D50204D4F544F52BA
:06034000204F46460000BC
:00000001FF
